:020000040000FA
:0400000001EF3FF0DD
:107DEE004000F90024003000190012000200F800D3
:107DFE0000001000EE0EF66E7D0EF76E000EF86EA1
:107E0E0000EE1EF010EE14F00900F5CFEEFFE55077
:107E1E00E150FAE1000114EF3FF020EE1EF010EEFB
:107E2E0008F0130EDBCFE3FFE806FCE2030E946EC0
:107E3E00000E956E400E836E25EF3FF08250D8A453
:107E4E002BEF3FF02DEF3FF031EF3FF03FEF3FF0E4
:107E5E003FEF3FF08204D8A437EF3FF039EF3FF009
:107E6E003FEF3FF0A5EF3FF0A5EF3FF03FEF3FF0C4
:107E7E00000E1D6E000E1C6E1DBE4FEF3FF01D500E
:107E8E0009E10A0E1C5CD8A04FEF3FF051EF3FF016
:107E9E0057EF3FF025EF3FF025EF3FF057EF3FF064
:107EAE00020E8218D8B45EEF3FF060EF3FF057EF4E
:107EBE003FF0030E8218D8A467EF3FF069EF3FF052
:107ECE006DEF3FF057EF3FF057EF3FF0D8901C3477
:107EDE00D96E1D34DA6E080ED926000EDA22DF5066
:107EEE00836E030E076E8A0E066E560EE82EFED7B2
:107EFE00062EFCD7072EFAD78204D8A489EF3FF0BE
:107F0E008BEF3FF091EF3FF0F0EF3FF0F0EF3FF0EF
:107F1E0091EF3FF01C4A1D2A1DBE9FEF3FF01D50F2
:107F2E0009E10A0E1C5CD8A09FEF3FF0A1EF3FF0D5
:107F3E0057EF3FF025EF3FF025EF3FF0000E1D6E9F
:107F4E00090E1C6E1DBEB0EF3FF0AEEF3FF0B6EF68
:107F5E003FF025EF3FF025EF3FF0B6EF3FF0020E7A
:107F6E008218D8B4BDEF3FF0BFEF3FF0B6EF3FF051
:107F7E00030E8218D8A4C6EF3FF0C8EF3FF0CCEF47
:107F8E003FF0B6EF3FF0B6EF3FF0D8901C34D96E0D
:107F9E001D34DA6E080ED926000EDA22DF50836EFB
:107FAE00030E076E8A0E066E560EE82EFED7062EAE
:107FBE00FCD7072EFAD78250D8A4E8EF3FF0EAEFAD
:107FCE003FF0F0EF3FF091EF3FF091EF3FF0F0EF29
:107FDE003FF01C06D8A01D061DBEFAEF3FF0F8EFCD
:107FEE003FF0B6EF3FF025EF3FF025EF3FF000EF0B
:027FFE0000F091
:020000040020DA
:08000000FFFFFFFFFFFFFFFF00
:020000040030CA
:0E00000000001F1EFF8385FF0FC00FE00F40A2
:00000001FF
