:020000040000FA
:0400000008EF3FF0D6
:107E100000010BEF3FF09468000E956E000E836E2C
:107E20008250D8A416EF3FF018EF3FF01CEF3FF060
:107E30002AEF3FF02AEF3FF08204D8A422EF3FF070
:107E400024EF3FF02AEF3FF098EF3FF098EF3FF03C
:107E50002AEF3FF0000E096E000E086E09BE37EFE4
:107E60003FF00904D8A037EF3FF039EF3FF03FEF84
:107E70003FF010EF3FF010EF3FF03FEF3FF0020E0A
:107E80008218D8B446EF3FF048EF3FF03FEF3FF0A5
:107E9000030E8218D8A44FEF3FF051EF3FF055EF9B
:107EA0003FF03FEF3FF03FEF3FF008C083FF000E91
:107EB000076E000E066E600E065CEA0E0758D8A02C
:107EC00064EF3FF066EF3FF06AEF3FF079EF3FF08D
:107ED00079EF3FF0064A072A600E065CEA0E075863
:107EE000D8A075EF3FF077EF3FF06AEF3FF079EF02
:107EF0003FF08204D8A47FEF3FF081EF3FF087EF9F
:107F00003FF0F0EF3FF0F0EF3FF087EF3FF0084A2F
:107F1000092A09BE92EF3FF00904D8A092EF3FF082
:107F200094EF3FF03FEF3FF010EF3FF010EF3FF0E6
:107F3000000E096E086809BEA2EF3FF0A0EF3FF007
:107F4000A8EF3FF010EF3FF010EF3FF0A8EF3FF049
:107F5000020E8218D8B4AFEF3FF0B1EF3FF0A8EFB8
:107F60003FF0030E8218D8A4B8EF3FF0BAEF3FF00D
:107F7000BEEF3FF0A8EF3FF0A8EF3FF008C083FF4F
:107F8000000E076E000E066E600E065CEA0E0758C5
:107F9000D8A0CDEF3FF0CFEF3FF0D3EF3FF0E2EFCF
:107FA0003FF0E2EF3FF0064A072A600E065CEA0E59
:107FB0000758D8A0DEEF3FF0E0EF3FF0D3EF3FF0FF
:107FC000E2EF3FF08250D8A4E8EF3FF0EAEF3FF055
:107FD000F0EF3FF087EF3FF087EF3FF0F0EF3FF03B
:107FE0000806D8A0090609BEFAEF3FF0F8EF3FF007
:107FF000A8EF3FF010EF3FF010EF3FF000EF00F080
:020000040020DA
:08000000FFFFFFFFFFFFFFFF00
:020000040030CA
:0E000000200C191EFF8381FF0FC00FE00F4080
:00000001FF
