:1000000047EF00F00000000000EF00F000000000EB
:0A0010000000000000000000F3D71C
:0A001C00000E9EBA010E006E1200E5
:10002600AECF01F0ABA202D0AB98AB8801C000F016
:020036001200B6
:10003800FF0E226EFF0E236EFF0E246EFF0E256E3E
:10004800260E1D6E000E1E6E000E1F6E000E206E18
:100058001C0E156E000E166E000E176E000E186E32
:10006800FF0E196EFF0E1A6E000E1B6E000E1C6E30
:10007800AC8A900EAB6E948E949C9EAA03D0AECFA1
:0600880000F0FBD712009E
:10008E00956AB886020EB06E080EAF6EAC84CDDFE8
:10009E00030E0B6E8A0E0C6E550E0D6E0D2EFED7C8
:1000AE000C2EFCD70B2EFAD700000000B0DF00524A
:1000BE00D8B4D1D0B1DF00C021F00050410A21E107
:1000CE00ABDF0050580A1DE083801A0E0B6E5E0ED9
:1000DE000C6E6E0E0D6E0D2EFED70C2EFCD70B2E4B
:1000EE00FAD7000083901A0E0B6E5E0E0C6E6E0E1B
:1000FE000D6E0D2EFED70C2EFCD70B2EFAD7000050
:10010E00DFD72150530A21E187DF0050580A1DE046
:10011E0083821A0E0B6E5E0E0C6E6E0E0D6E0D2E13
:10012E00FED70C2EFCD70B2EFAD7000083921A0E98
:10013E000B6E5E0E0C6E6E0E0D6E0D2EFED70C2E11
:10014E00FCD70B2EFAD70000DFD72150440A21E14D
:10015E0063DF0050580A1DE083841A0E0B6E5E0E8C
:10016E000C6E6E0E0D6E0D2EFED70C2EFCD70B2EBA
:10017E00FAD7000083941A0E0B6E5E0E0C6E6E0E86
:10018E000D6E0D2EFED70C2EFCD70B2EFAD70000BF
:10019E00DFD72150570A21E13FDF0050580A1DE0FA
:1001AE0083861A0E0B6E5E0E0C6E6E0E0D6E0D2E7F
:1001BE00FED70C2EFCD70B2EFAD7000083961A0E04
:1001CE000B6E5E0E0C6E6E0E0D6E0D2EFED70C2E81
:1001DE00FCD70B2EFAD70000DFD72150500A1CE1B6
:1001EE0083881A0E0B6E5E0E0C6E6E0E0D6E0D2E3D
:1001FE00FED70C2EFCD70B2EFAD7000083981A0EC2
:10020E000B6E5E0E0C6E6E0E0D6E0D2EFED70C2E40
:10021E00FCD70B2EFAD700002150520A1CE1838A1C
:10022E001A0E0B6E5E0E0C6E6E0E0D6E0D2EFED732
:10023E000C2EFCD70B2EFAD70000839A1A0E0B6EDB
:10024E005E0E0C6E6E0E0D6E0D2EFED70C2EFCD7A6
:0A025E000B2EFAD700002AD7FFD7B5
:020000040030CA
:0E000000040C1F1EFF8381FF0FC00FE00F4096
:00000001FF
