:020000040000FA
:0400000067EF3DF079
:107AAE00210079004000120007002F00060012008E
:107ABE00470041002B0008000C0079001200400026
:107ACE00AE0EF66E7A0EF76E000EF86E00EE2BF01E
:107ADE0010EE20F00900F5CFEEFFE550E150FAE18F
:107AEE0000017AEF3DF020EE43F010EE07F0070EA6
:107AFE00DBCFE3FFE806FCE220EE3BF010EE0FF0EA
:107B0E00070EDBCFE3FFE806FCE220EE33F010EECB
:107B1E0017F0070EDBCFE3FFE806FCE220EE2BF0BA
:107B2E0010EE1FF0070EDBCFE3FFE806FCE2000EBF
:107B3E00956E030E946EA4EF3DF08250D8A4AAEF7A
:107B4E003DF0ACEF3DF0B0EF3DF0D8EF3DF0D8EFAB
:107B5E003DF08204D8A4B6EF3DF0B8EF3DF0BCEF97
:107B6E003DF062EF3EF062EF3EF0020E8218D8A4B6
:107B7E00C3EF3DF0C5EF3DF0C9EF3DF0ECEF3EF049
:107B8E00ECEF3EF0030E8218D8A4D0EF3DF0D2EF0A
:107B9E003DF0D8EF3DF075EF3FF075EF3FF0D8EFC9
:107BAE003DF0000E2A6E000E296E2ABEE8EF3DF063
:107BBE002A5009E1040E295CD8A0E8EF3DF0EAEF67
:107BCE003DF0EEEF3DF0A4EF3DF0A4EF3DF0D89088
:107BDE002934D96E2A34DA6E070ED926000EDA222F
:107BEE00DF50836E8204D8A4FFEF3DF001EF3EF02C
:107BFE0005EF3EF062EF3EF062EF3EF0020E8218AD
:107C0E00D8A40CEF3EF00EEF3EF012EF3EF0ECEF8C
:107C1E003EF0ECEF3EF0030E8218D8A419EF3EF0C2
:107C2E001BEF3EF01FEF3EF075EF3FF075EF3FF0AC
:107C3E00000E286E000E276E28BE2FEF3EF0285045
:107C4E0009E10A0E275CD8A02FEF3EF031EF3EF08F
:107C5E0035EF3EF04EEF3EF04EEF3EF0820E066EEA
:107C6E00DE0EE82EFED7062EFCD7274A282A28BE7F
:107C7E004AEF3EF0285009E10A0E275CD8A04AEFE1
:107C8E003EF04CEF3EF035EF3EF04EEF3EF0294A1F
:107C9E002A2A2ABE5CEF3EF02A5009E1040E295C26
:107CAE00D8A05CEF3EF05EEF3EF0EEEF3DF0A4EFBD
:107CBE003DF0A4EF3DF0000E2A6E000E296E2ABE96
:107CCE0072EF3EF02A5009E1040E295CD8A072EF43
:107CDE003EF074EF3EF078EF3EF0A4EF3DF0A4EFEF
:107CEE003DF0D8902934D96E2A34DA6E0F0ED9268B
:107CFE00000EDA22DF50836E8250D8A489EF3EF058
:107D0E008BEF3EF08FEF3EF0D8EF3DF0D8EF3DF029
:107D1E00020E8218D8A496EF3EF098EF3EF09CEF3C
:107D2E003EF0ECEF3EF0ECEF3EF0030E8218D8A4DE
:107D3E00A3EF3EF0A5EF3EF0A9EF3EF075EF3FF05A
:107D4E0075EF3FF0000E286E000E276E28BEB9EFBD
:107D5E003EF0285009E10A0E275CD8A0B9EF3EF09C
:107D6E00BBEF3EF0BFEF3EF0D8EF3EF0D8EF3EF067
:107D7E00820E066EDE0EE82EFED7062EFCD7274AA2
:107D8E00282A28BED4EF3EF0285009E10A0E275CBF
:107D9E00D8A0D4EF3EF0D6EF3EF0BFEF3EF0D8EFD6
:107DAE003EF0294A2A2A2ABEE6EF3EF02A5009E181
:107DBE00040E295CD8A0E6EF3EF0E8EF3EF078EF37
:107DCE003EF0A4EF3DF0A4EF3DF0000E2A6E000E43
:107DDE00296E2ABEFCEF3EF02A5009E1040E295C02
:107DEE00D8A0FCEF3EF0FEEF3EF002EF3FF0A4EF26
:107DFE003DF0A4EF3DF0D8902934D96E2A34DA6ED6
:107E0E00170ED926000EDA22DF50836E8250D8A4C8
:107E1E0013EF3FF015EF3FF019EF3FF0D8EF3DF0C5
:107E2E00D8EF3DF08204D8A41FEF3FF021EF3FF0D2
:107E3E0025EF3FF062EF3EF062EF3EF0030E821848
:107E4E00D8A42CEF3FF02EEF3FF032EF3FF075EF5E
:107E5E003FF075EF3FF0000E286E000E276E28BE25
:107E6E0042EF3FF0285009E10A0E275CD8A042EFFE
:107E7E003FF044EF3FF048EF3FF061EF3FF061EF2E
:107E8E003FF0820E066EDE0EE82EFED7062EFCD7D3
:107E9E00274A282A28BE5DEF3FF0285009E10A0E36
:107EAE00275CD8A05DEF3FF05FEF3FF048EF3FF06B
:107EBE0061EF3FF0294A2A2A2ABE6FEF3FF02A507F
:107ECE0009E1040E295CD8A06FEF3FF071EF3FF08F
:107EDE0002EF3FF0A4EF3DF0A4EF3DF0000E2A6E4E
:107EEE00000E296E2ABE85EF3FF02A5009E1040EDE
:107EFE00295CD8A085EF3FF087EF3FF08BEF3FF086
:107F0E00A4EF3DF0A4EF3DF0D8902934D96E2A3479
:107F1E00DA6E1F0ED926000EDA22DF50836E8250E3
:107F2E00D8A49CEF3FF09EEF3FF0A2EF3FF0D8EFCA
:107F3E003DF0D8EF3DF08204D8A4A8EF3FF0AAEFB1
:107F4E003FF0AEEF3FF062EF3EF062EF3EF0020E1A
:107F5E008218D8A4B5EF3FF0B7EF3FF0BBEF3FF07C
:107F6E00ECEF3EF0ECEF3EF0000E286E000E276EAA
:107F7E0028BECBEF3FF0285009E10A0E275CD8A0AF
:107F8E00CBEF3FF0CDEF3FF0D1EF3FF0EAEF3FF018
:107F9E00EAEF3FF0820E066EDE0EE82EFED7062EBC
:107FAE00FCD7274A282A28BEE6EF3FF0285009E1E1
:107FBE000A0E275CD8A0E6EF3FF0E8EF3FF0D1EFD6
:107FCE003FF0EAEF3FF0294A2A2A2ABEF8EF3FF0A7
:107FDE002A5009E1040E295CD8A0F8EF3FF0FAEF21
:107FEE003FF08BEF3FF0A4EF3DF0A4EF3DF000EF3C
:027FFE0000F091
:020000040020DA
:08000000FFFFFFFFFFFFFFFF00
:020000040030CA
:0E00000000001F1EFF8385FF0FC00FE00F40A2
:00000001FF
