:020000040000FA
:0400000007EF00F016
:100008005F8294ED01F0B3EF01F0DDEC01F020EE3A
:1000180055F010EE2BF0070EDBCFE3FFE806FCE20D
:1000280020EE37F010EE0DF01D0EDBCFE3FFE806F3
:10003800FCE2000E946E000E956E000E5E6E000ED1
:100048005D6E82908292820E0C6EDE0EE82EFED7D6
:100058000C2EFCD7000E366E000E356E36BE3EEF07
:1000680000F0365009E1040E355CD8A03EEF00F0F0
:1000780040EF00F044EF00F076EF00F076EF00F08C
:10008800D8903534D96E3634DA6E2B0ED926000E58
:10009800DA22DF50836E820E0C6EDE0EE82EFED75B
:1000A8000C2EFCD78282820E0C6EDE0EE82EFED756
:1000B8000C2EFCD78292820E0C6EDE0EE82EFED736
:1000C8000C2EFCD7354A362A36BE74EF00F036506F
:1000D80009E1040E355CD8A074EF00F076EF00F06B
:1000E80044EF00F082808292820E0C6EDE0EE82EC3
:1000F800FED70C2EFCD7000E366E000E356E36BEBF
:100108008FEF00F0365009E10F0E355CD8A08FEF65
:1001180000F091EF00F095EF00F0C9EF00F0C9EFA3
:1001280000F0D8903534D96E3634DA6E0D0ED926F3
:10013800000EDA22DF50836E820E0C6EDE0EE82E81
:10014800FED70C2EFCD78282820E0C6EDE0EE82EB5
:10015800FED70C2EFCD78292820E0C6EDE0EE82E95
:10016800FED70C2EFCD7354A362A36BEC5EF00F02E
:10017800365009E10F0E355CD8A0C5EF00F0C7EF87
:1001880000F095EF00F0C9EF00F0DA0ED66ED90E48
:10019800D76ECFEF00F05DC001F05EC002F0000E38
:1001A800046E0A0E036E28EC01F001C033F002C0A1
:1001B80034F082908292820E0C6EDE0EE82EFED70C
:1001C8000C2EFCD7C70E836E820E0C6EDE0EE82E48
:1001D800FED70C2EFCD78282820E0C6EDE0EE82E25
:1001E800FED70C2EFCD78292820E0C6EDE0EE82E05
:1001F800FED70C2EFCD782808292820E0C6EDE0E09
:10020800E82EFED70C2EFCD73350300F836E820EAB
:100218000C6EDE0EE82EFED70C2EFCD78282820EE4
:100228000C6EDE0EE82EFED70C2EFCD78292820EC4
:100238000C6EDE0EE82EFED70C2EFCD7CFEF00F0AA
:10024800CFEF00F007EF00F0000E066E02BE31EFB0
:1002580001F02FEF01F039EF01F0016C021ED8B068
:10026800022A010E066E39EF01F004BE40EF01F0DC
:100278003EEF01F046EF01F0036C041ED8B0042AEB
:1002880046EF01F003500410D8B44DEF01F04FEFE2
:1002980001F07FEF01F0010E056E59EF01F0D890E3
:1002A80003360436052A59EF01F004AE5EEF01F07B
:1002B80060EF01F053EF01F064EF01F064EF01F03B
:1002C8000350015C04500258D8A06DEF01F06FEFA5
:1002D80001F075EF01F00350015E0450025A75EF0A
:1002E80001F0D89004320332052E64EF01F07FEF5D
:1002F80001F07FEF01F00650D8B485EF01F087EFE9
:1003080001F08DEF01F0016C021ED8B0022A8DEFCA
:1003180001F001C001F002C002F093EF01F01200F9
:100328000600F2A49AEF01F09CEF01F0B1EF01F0A2
:100338005D4A5E2A0A0E5D185E10D8A4A6EF01F089
:10034800A8EF01F0AEEF01F0000E5E6E000E5D6EDC
:10035800AEEF01F0F294B1EF01F05F921100940E4C
:10036800F66E030EF76E000EF86E00EE37F010EE24
:1003780026F00900F5CFEEFFE550E150FAE15E6A9C
:100388005D6A5F905F92000109EF00F043004F0043
:100398004E005400410044004F00520020004D0020
:1003A8004F004400200031003000010038000C00EC
:1003B8000600F29ED59AD596D550F80B0509D56E4C
:0E03C800D59CD58EF28AF294F28CF28E120041
:020000040020DA
:08000000FFFFFFFFFFFFFFFF00
:020000040030CA
:0E000000000C191FFF8385FF0FC00FE00F409B
:00000001FF
