:020000040000FA
:0400000007EF00F016
:10000800538230ED02F060EF02F087EC02F020EE50
:1000180049F010EE23F0070EDBCFE3FFE806FCE221
:1000280020EE31F010EE0BF0170EDBCFE3FFE80601
:10003800FCE2000E946E000E956E000E826E8298A1
:10004800829A0D0E0A6EFC0EE82EFED70A2EFCD7F9
:10005800000E306E000E2F6E30BE3CEF00F03050B8
:1000680009E1040E2F5CD8A03CEF00F03EEF00F051
:1000780042EF00F074EF00F074EF00F0D8902F34E6
:10008800D96E3034DA6E230ED926000EDA22DF500C
:10009800836E0D0E0A6EFC0EE82EFED70A2EFCD7D4
:1000A800828A0D0E0A6EFC0EE82EFED70A2EFCD7A9
:1000B800829A0D0E0A6EFC0EE82EFED70A2EFCD789
:1000C8002F4A302A30BE72EF00F0305009E1040E9A
:1000D8002F5CD8A072EF00F074EF00F042EF00F050
:1000E8008288829A0D0E0A6EFC0EE82EFED70A2E22
:1000F800FCD7000E306E000E2F6E30BE8DEF00F074
:10010800305009E10C0E2F5CD8A08DEF00F08FEF76
:1001180000F093EF00F0C7EF00F0C7EF00F0D890C1
:100128002F34D96E3034DA6E0B0ED926000EDA224F
:10013800DF50836E0D0E0A6EFC0EE82EFED70A2ED7
:10014800FCD7828A0D0E0A6EFC0EE82EFED70A2E08
:10015800FCD7829A0D0E0A6EFC0EE82EFED70A2EE8
:10016800FCD72F4A302A30BEC3EF00F0305009E1E7
:100178000C0E2F5CD8A0C3EF00F0C5EF00F093EF92
:1001880000F0C7EF00F0DC0ED66E0B0ED76ECDEF89
:1001980000F051C002F052C003F0000E056E0A0EC6
:1001A800046E4EEC01F002C02BF003C02CF051C0DD
:1001B80002F052C003F0000E056E0A0E046EC4EC85
:1001C80001F002C02DF003C02EF08298829A0D0E25
:1001D8000A6EFC0EE82EFED70A2EFCD7C70E836ED9
:1001E8000D0E0A6EFC0EE82EFED70A2EFCD7828A68
:1001F8000D0E0A6EFC0EE82EFED70A2EFCD7829A48
:100208000D0E0A6EFC0EE82EFED70A2EFCD7828849
:10021800829A0D0E0A6EFC0EE82EFED70A2EFCD727
:100228002B50300F836E0D0E0A6EFC0EE82EFED793
:100238000A2EFCD7828A0D0E0A6EFC0EE82EFED717
:100248000A2EFCD7829A0D0E0A6EFC0EE82EFED7F7
:100258000A2EFCD72D50300F836E0D0E0A6EFC0E41
:10026800E82EFED70A2EFCD7828A0D0E0A6EFC0EE7
:10027800E82EFED70A2EFCD7829A0D0E0A6EFC0EC7
:10028800E82EFED70A2EFCD7CDEF00F0CDEF00F018
:1002980007EF00F0000E076E05BE57EF01F055EFAF
:1002A80001F05FEF01F0046C051ED8B0052A010EBD
:1002B800076E5FEF01F003BE66EF01F064EF01F037
:1002C8006EEF01F0026C031ED8B0032A010E071A64
:1002D8006EEF01F0000E096E000E086E0450051056
:1002E800D8B479EF01F07BEF01F0AFEF01F0010E28
:1002F800066E85EF01F0D89004360536062A85EF9C
:1003080001F005AE8AEF01F08CEF01F07FEF01F00C
:1003180090EF01F090EF01F0D890083609360450BC
:10032800025C05500358D8A09CEF01F09EEF01F045
:10033800A5EF01F00450025E0550035A0880A5EFAE
:1003480001F0D89005320432062E90EF01F0AFEF9D
:1003580001F0AFEF01F00750D8B4B5EF01F0B7EFF7
:1003680001F0BDEF01F0086C091ED8B0092ABDEFF5
:1003780001F008C002F009C003F0C3EF01F0120059
:10038800000E076E03BECDEF01F0CBEF01F0D5EF05
:1003980001F0026C031ED8B0032A010E076ED5EFD8
:1003A80001F005BEDCEF01F0DAEF01F0E2EF01F059
:1003B800046C051ED8B0052AE2EF01F004500510C0
:1003C800D8B4E9EF01F0EBEF01F01BEF02F0010EFA
:1003D800066EF5EF01F0D89004360536062AF5EFDB
:1003E80001F005AEFAEF01F0FCEF01F0EFEF01F0DC
:1003F80000EF02F000EF02F00450025C05500358D1
:10040800D8A009EF02F00BEF02F011EF02F0045050
:10041800025E0550035A11EF02F0D89005320432FB
:10042800062E00EF02F01BEF02F01BEF02F0075060
:10043800D8B421EF02F023EF02F029EF02F0026CAA
:10044800031ED8B0032A29EF02F002C002F003C04D
:1004580003F02FEF02F012000600F2A436EF02F0CC
:1004680038EF02F05EEF02F0514A522A640E51183A
:100478005210D8A442EF02F044EF02F04AEF02F023
:10048800000E526E000E516E4AEF02F082B24FEF2C
:1004980002F052EF02F0010E53EF02F0000EFF0AD5
:1004A800016E014682500118FD0B0118826EF2940C
:1004B8005EEF02F053921100EE0EF66E040EF76E28
:1004C800000EF86E00EE31F010EE20F00900F5CFC6
:1004D800EEFFE550E150FAE1526A516A53905392A7
:1004E800000109EF00F02000200020002000430058
:1004F8004F004E005400410044004F0052000100DC
:1005080038000C000600F29E800ED56EF28AF29436
:06051800F28CF28E1200CD
:020000040020DA
:08000000FFFFFFFFFFFFFFFF00
:020000040030CA
:0E000000000C1F1EFF0385FF0FC00FE00F4016
:00000001FF
