:020000040000FA
:04000000FCEF24F0FD
:10080000005465636E2E2064656C205065727520FF
:100810000056616C6F722032203D20252E3266001A
:1008200075436F6E74726F6C61646F72657300569E
:10083000616C6F722031203D20256400556E697611
:100840006572736964616400437572736F206465D7
:1008500000494E46004E414E00696E66006E616E64
:10086000006C6600210023002500280029003000CC
:100870003100320033003B003D00400041004200A7
:07088000610062006300004B
:10088800000E00017B6F000E7A6F30C08CF031C013
:100898008DF032C08EF033C08FF08FBF58EF04F068
:1008A80056EF04F070EF04F0000E7B6F010E7A6FC4
:1008B8008CC001F08DC002F08EC003F08FC004F030
:1008C8006FEC24F001C08CF002C08DF003C08EF0F4
:1008D80004C08FF070EF04F0000E0001936F000E5B
:1008E800926FE2C07FF0E3C080F07A517B11D8A408
:1008F80080EF04F082EF04F08BEF04F0E6A587EFB9
:1009080004F089EF04F0AFEF04F08BEF04F07A51B4
:100918007B11D8A492EF04F094EF04F09AEF04F05E
:10092800000E656F2B0E646FA0EF04F0000E656F6C
:100938002D0E646FA0EF04F0000E9225D96E010E03
:100948009321DA6E64C0DFFF924B932B7F07D8A008
:100958008007AFEF04F08CC001F08DC002F08EC0AC
:1009680003F08FC004F041EC1DF001040210D8A47C
:10097800C0EF04F0C2EF04F02CEF05F0BF0E356EA7
:10098800FF0E366E3450376E386A3550372636507B
:10099800382238500AE11A0E375CD8A0D6EF04F096
:1009A800D9EF04F0010EDAEF04F0000E0001666FD3
:1009B800676BEAEF04F034C001F0026A8FEC24F0B0
:1009C80001C066F002C067F0EAEF04F0000166516A
:1009D8006711D8B4F2EF04F0F4EF04F002EF05F079
:1009E800000E9225016E010E9321026E510E036EC8
:1009F800080E046E41EC22F011EF05F0000E000124
:100A08009225016E010E9321026E590E036E080E97
:100A1800046E41EC22F011EF05F00001FD0E7F2776
:100A2800FF0E80232EC011F02FC012F0000E136E9F
:100A3800010E146E7FC015F080C016F0F6EC20F0A1
:100A480011C02EF012C02FF0D4EF0AF0D4EF0AF044
:100A58008CC001F08DC002F08EC003F08FC004F08E
:100A680041EC1DF001500210D8A43DEF05F03FEF16
:100A780005F0A9EF05F0BF0E356EFF0E366E345047
:100A8800376E386A355037263650382238500AE1E2
:100A98001A0E375CD8A053EF05F056EF05F0010E9B
:100AA80057EF05F0000E0001686F696B67EF05F0FE
:100AB80034C001F0026A8FEC24F001C068F002C073
:100AC80069F067EF05F0000168516911D8B46FEF5C
:100AD80005F071EF05F07FEF05F0000E9225016E2D
:100AE800010E9321026E550E036E080E046E41EC42
:100AF80022F08EEF05F0000E00019225016E010E26
:100B08009321026E5D0E036E080E046E41EC22F016
:100B18008EEF05F00001FD0E7F27FF0E80232EC00B
:100B280011F02FC012F0000E136E010E146E7FC06C
:100B380015F080C016F0F6EC20F011C02EF012C0AF
:100B48002FF0D4EF0AF0D4EF0AF0000E0001946FF2
:100B5800000E956F800E966F3F0E976F000E916F87
:100B6800000E906F8CC001F08DC002F08EC003F0B3
:100B78008FC004F0000E056E000E066E000E076EA4
:100B8800000E086E61EC21F0D8B0CDEF05F0CFEF84
:100B980005F05EEF06F0F2EF05F0F2EF05F094C015
:100BA80001F095C002F096C003F097C004F0000E63
:100BB800056E000E066E200E076E410E086E87EC5D
:100BC80010F001C094F002C095F003C096F004C084
:100BD80097F00001904B912BF2EF05F08CC01AF0C2
:100BE8008DC01BF08EC01CF08FC01DF0000E056E6E
:100BF800000E066E200E076E410E086E94C001F0BE
:100C080095C002F096C003F097C004F087EC10F08E
:100C180001C01EF002C01FF003C020F004C021F084
:100C280047EC1BF0D8B01BEF06F01DEF06F0D3EF32
:100C380005F041EF06F041EF06F094C001F095C0D1
:100C480002F096C003F097C004F0000E056E000E87
:100C5800066E200E076E410E086EBEEC12F001C043
:100C680094F002C095F003C096F004C097F000011C
:100C78009007D8A0910741EF06F08CC01AF08DC0FC
:100C88001BF08EC01CF08FC01DF094C01EF095C0E4
:100C98001FF096C020F097C021F047EC1BF0D8A0B9
:100CA80058EF06F05AEF06F021EF06F05EEF06F077
:100CB8005EEF06F034C007F0086A01EC22F0075036
:100CC8000001816F81C07EF0670E8119D8A46FEF93
:100CD80006F071EF06F09BEF06F0E451E511D8A499
:100CE80078EF06F07AEF06F080EF06F0000EE56F79
:100CF800010EE46F80EF06F0E5BF8DEF06F0E551D9
:100D080006E1E405D8B08BEF06F08DEF06F093EF1F
:100D180006F0000E7D6F060E7C6FB0EF06F0E4C0A3
:100D28007CF0E5C07DF0B0EF06F0B0EF06F0E5BF6F
:100D3800A0EF06F0A2EF06F0A8EF06F0E4C07CF002
:100D4800E5C07DF0B0EF06F0000E7D6F060E7C6FFB
:100D5800B0EF06F0B0EF06F0670E8119D8A4B7EF30
:100D680006F0B9EF06F0ECEF06F091AFC7EF06F02A
:100D7800FC0E905DFF0E9159D8A0C5EF06F0C7EFA5
:100D880006F0E6EF06F0FF0E356EFF0E366E7CC0FD
:100D980037F07DC038F0355037263650382290511C
:100DA800375C3850800A396E9151800A3958D8A07A
:100DB800E0EF06F0E2EF06F0E6EF06F0660E7E6F73
:100DC800ECEF06F0650E7E6FECEF06F0ECEF06F048
:100DD8007CC074F07DC075F0670E8119D8A4F7EF58
:100DE80006F0F9EF06F00BEF07F0660E7E19D8A4AF
:100DF80000EF07F002EF07F00FEF07F091BF09EFE0
:100E080007F007EF07F00FEF07F00BEF07F0744B51
:100E1800752B0FEF07F0660E7E19D8A416EF07F0B2
:100E280018EF07F03EEF07F091BF1FEF07F01DEF37
:100E380007F02DEF07F0000E946F000E956F800EEF
:100E4800966F3F0E976F000E916F000E906F2DEF0B
:100E580007F0670E8119D8B434EF07F036EF07F0C2
:100E68003EEF07F090517427915175233EEF07F03C
:100E78003EEF07F0000E8B6F000E8A6F8CC082F079
:100E88008DC083F08EC084F08FC085F094C060F070
:100E980095C061F096C062F097C063F0D1EF07F09B
:100EA80082C001F083C002F084C003F085C004F062
:100EB80094C005F095C006F096C007F097C008F0FA
:100EC800BEEC12F001C01AF002C01BF003C01CF007
:100ED80004C01DF089EC17F01AC086F01BC087F01B
:100EE8001CC088F01DC089F086C001F087C002F0E0
:100EF80088C003F089C004F0FBEC1BF001C078F057
:100F080002C079F082C01AF083C01BF084C01CF0C4
:100F180085C01DF094C005F095C006F096C007F096
:100F280097C008F086C001F087C002F088C003F0BF
:100F380089C004F087EC10F001C01EF002C01FF059
:100F480003C020F004C021F007EC24F01AC082F09E
:100F58001BC083F01CC084F01DC085F094C001F054
:100F680095C002F096C003F097C004F0000E056E1D
:100F7800000E066E200E076E410E086EBEEC12F0D3
:100F880001C094F002C095F003C096F004C097F039
:100F980000018A4B8B2BD1EF07F074518A5D8B517E
:100FA800800A356E7551800A3558D8A0DEEF07F0F3
:100FB800E0EF07F054EF07F0E2EF07F094C001F01C
:100FC80095C002F096C003F097C004F0000E056EBD
:100FD800000E066EA00E076E400E086E87EC10F02D
:100FE80001C086F002C087F003C088F004C089F011
:100FF80082C01AF083C01BF084C01CF085C01DF0AD
:1010080086C01EF087C01FF088C020F089C021F07C
:1010180047EC1BF0D8B013EF08F015EF08F020EFFD
:1010280008F0000E0001866F000E876F000E886FB3
:10103800000E896F4DEF08F082C001F083C002F006
:1010480084C003F085C004F086C005F087C006F0B0
:1010580088C007F089C008F061EC21F0D8A037EF0C
:1010680008F039EF08F04DEF08F0000178B13FEFD4
:1010780008F041EF08F04DEF08F0000E866F000E03
:10108800876F000E886F000E896F4DEF08F04DEFE7
:1010980008F08CC001F08DC002F08EC003F08FC044
:1010A80004F086C005F087C006F088C007F089C044
:1010B80008F0C5EC0DF001C082F002C083F003C057
:1010C80084F004C085F060C094F061C095F062C0FF
:1010D80096F063C097F0650E00017E19D8B477EFDB
:1010E80008F079EF08F07FEF08F090C076F091C033
:1010F80077F083EF08F0000E776F000E766F000E22
:10110800736F000E726F000E716F000E706F000E1D
:101118008B6F000E8A6F88EF09F082C001F083C0E0
:1011280002F084C003F085C004F094C005F095C0B7
:1011380006F096C007F097C008F0BEEC12F001C0A8
:101148001AF002C01BF003C01CF004C01DF089ECAB
:1011580017F01AC086F01BC087F01CC088F01DC0AD
:1011680089F086C001F087C002F088C003F089C00A
:1011780004F0FBEC1BF001C078F002C079F000012C
:10118800E6B9C9EF08F0CBEF08F0E8EF08F07851BE
:101198007911D8A4D2EF08F0D4EF08F0E8EF08F0FE
:1011A800670E8119D8A4DBEF08F0DDEF08F0E8EF4F
:1011B80008F077BFE4EF08F0E2EF08F0E8EF08F096
:1011C800704B712B3AEF09F072517311D8A4EFEFFD
:1011D80008F0F1EF08F01FEF09F077BFF8EF08F01B
:1011E800F6EF08F01FEF09F0000E9225D96E010EF8
:1011F8009321DA6E2E0EDF6E924B932B7F07D8A0C9
:101208008007000E736F010E726F1FEF09F01FEF5A
:1012180009F0000E9225D96E010E9321DA6E300E78
:10122800DF6E924B932B7F07D8A080077007D8A05A
:1012380071071FEF09F070517111D8A426EF09F05A
:1012480028EF09F00DEF09F02AEF09F0000E9225BA
:10125800D96E010E9321DA6E7851300FDF6E924B02
:10126800932B7F07D8A080073AEF09F082C01AF0C5
:1012780083C01BF084C01CF085C01DF094C005F02D
:1012880095C006F096C007F097C008F086C001F038
:1012980087C002F088C003F089C004F087EC10F022
:1012A80001C01EF002C01FF003C020F004C021F0EE
:1012B80007EC24F01AC082F01BC083F01CC084F035
:1012C8001DC085F094C001F095C002F096C003F0EF
:1012D80097C004F0000E056E000E066E200E076E15
:1012E800410E086EBEEC12F001C094F002C095F0F9
:1012F80003C096F004C097F000017607D8A07707DE
:101308008A4B8B2B88EF09F074518A5D8B51800AC8
:10131800356E7551800A3558D8B095EF09F097EFBA
:1013280009F0A9EF09F093BFA3EF09F0935109E180
:101338004B0E925DD8A0A3EF09F0A5EF09F091EF4D
:1013480008F0A9EF09F0A9EF09F072517311D8A4B8
:10135800B0EF09F0B2EF09F0C5EF09F0E6A9B7EF71
:1013680009F0B9EF09F0C5EF09F0000E9225D96E22
:10137800010E9321DA6E2E0EDF6E924B932BC5EF82
:1013880009F0000E9225D96E010E9321DA6E000E37
:10139800DF6E650E7E19D8A4D4EF09F0D6EF09F0F8
:1013A800C0EF0AF0000E8B6F4F0E8A6F000E8A2571
:1013B800D96E010E8B21DA6E000EDF6E000E7B6F88
:1013C800000E7A6F91BFEDEF09F0EBEF09F0F7EF40
:1013D80009F0000E7B6F010E7A6F906D911FD8B0E7
:1013E800912BF7EF09F0000E7D6F020E7C6F2AEF4C
:1013F8000AF08A07D8A08B07000E8A25D96E010E3D
:101408008B21DA6E90C001F091C002F0000E046EDC
:101418000A0E036E1FEC20F00150300FDF6E90C0F3
:1014280001F091C002F0000E046E0A0E036EC8ECC3
:101438001EF001C090F002C091F000017C07D8A016
:101448007D077F07D8A080072AEF0AF090519111F5
:10145800D8A431EF0AF033EF0AF0FDEF09F07DBFB1
:1014680040EF0AF07D5106E17C05D8B03EEF0AF066
:1014780040EF0AF0FDEF09F042EF0AF08A07D8A022
:101488008B077A517B11D8A44CEF0AF04EEF0AF083
:1014980054EF0AF0000E6B6F2B0E6A6F5AEF0AF0CA
:1014A800000E6B6F2D0E6A6F5AEF0AF0000E8A2538
:1014B800D96E010E8B21DA6E6AC0DFFF7F07D8A0D4
:1014C80080078A07D8A08B07BF0E356EFF0E366ED1
:1014D8003450376E386A35503726365038223850EF
:1014E8000AE11A0E375CD8A07CEF0AF07FEF0AF009
:1014F800010E80EF0AF0000E6E6F6F6B8FEF0AF02F
:1015080034C001F0026A8FEC24F001C06EF002C012
:101518006FF08FEF0AF000016E516F11D8A497EFAA
:101528000AF099EF0AF09FEF0AF0000E6D6F650E52
:101538006C6FA5EF0AF0000E6D6F450E6C6FA5EF8E
:101548000AF0000E8A25D96E010E8B21DA6E6CC066
:10155800DFFF7F07D8A08007000E9225016E010EDD
:101568009321026E000E8A25036E010E8B21046EF4
:1015780041EC22F0C0EF0AF02EC011F02FC012F09B
:10158800000E136E010E146E7FC015F080C016F0A9
:10159800F6EC20F011C02EF012C02FF0D4EF0AF0B4
:1015A800120042C0D9FF43C0DAFFDECFF6FFDDCF1D
:1015B800F7FF0800F550250AD8A4E5EF0AF0E7EF91
:1015C8000AF0A5EF0DF042C0D9FF43C0DAFFDE2ACA
:1015D800000EDD22000E0001E36F000EE26FE2C094
:1015E800E6F0E3C0E7F0E469E56942C0D9FF43C02B
:1015F800DAFFDECFF6FFDDCFF7FF0800F5502E0A41
:10160800D8A409EF0BF00BEF0BF0A6EF0BF0000ED0
:10161800E56F000EE46F42C0D9FF43C0DAFFDE2A4F
:10162800000EDD2242C0D9FF43C0DAFFDECFF6FF4D
:10163800DDCFF7FF0800F5502A0AD8A426EF0BF0F3
:1016480028EF0BF045EF0BF042C0D9FF43C0DAFF9B
:10165800DE2A000EDD2244C0D9FF45C0DAFFDFCF05
:1016680046F0020EDE26DFCF47F0000EDD2246C030
:10167800D9FF47C0DAFFDECFE4F0DDCFE5F0A6EF13
:101688000BF042C0D9FF43C0DAFFDECF08F0DDCF50
:1016980009F0A2EC18F008C0E4F009C0E5F05EEF2C
:1016A8000BF042C0D9FF43C0DAFFDE2A000EDD226C
:1016B8005EEF0BF0D00E466EFF0E476E42C0D9FFAC
:1016C80043C0DAFFDECFF6FFDDCFF7FF0800F550A5
:1016D800486E496A465048264750492249500AE10F
:1016E8000A0E485CD8A07BEF0BF07EEF0BF0010EE2
:1016F8007FEF0BF0000E526E536A97EF0BF042C06B
:10170800D9FF43C0DAFFDECFF6FFDDCFF7FF0800D1
:10171800F550016E026AADEC24F001C052F002C02F
:1017280053F097EF0BF052505310D8A49EEF0BF0E4
:10173800A0EF0BF055EF0BF0A6EF0BF0A6EF0BF0B8
:10174800A6EF0BF042C0D9FF43C0DAFFDECFF6FFA9
:10175800DDCFF7FF0800F550076E086A01EC22F0AC
:1017680007505A6E5A50D8B4BCEF0BF0BEEF0BF0CE
:10177800FAEF0BF042C0D9FF43C0DAFFDECF46F0E4
:10178800DDCF47F0010E4626000E472246C0F6FF81
:1017980047C0F7FF0800F550076E086A01EC22F011
:1017A80007505B6E5B50D8B4DCEF0BF0DEEF0BF04C
:1017B800FAEF0BF042C0D9FF43C0DAFFDECF46F0A4
:1017C800DDCF47F0020E4626000E472246C0F6FF40
:1017D80047C0F7FF0800F550076E086A01EC22F0D1
:1017E80007505C6EFAEF0BF0FAEF0BF042C0D9FF2E
:1017F80043C0DAFFDECFF6FFDDCFF7FF0800F55074
:10180800640AD8B40AEF0CF00CEF0CF020EF0CF0DF
:1018180042C0D9FF43C0DAFFDECFF6FFDDCFF7FFC6
:101828000800F550690AD8A41CEF0CF01EEF0CF064
:1018380062EF0CF020EF0CF042C0D9FF43C0DAFF92
:10184800DE2A000EDD2244C0D9FF45C0DAFFDFCF13
:1018580046F0020EDE26DFCF47F0000EDD2246C03E
:10186800D9FF47C0DAFFDECF4AF0DDCF4BF0000EDC
:101878004BBEFF0E4C6E4D6E4E6E4F6E506E516EDF
:1018880040C01CF041C01DF04AC01EF04BC01FF004
:101898004CC020F04DC021F04EC022F04FC023F0C4
:1018A80050C024F051C025F0CEEC14F01CC040F01C
:1018B8001DC041F0C4EF0DF0C4EF0DF0660E5A18CC
:1018C800D8A469EF0CF06BEF0CF0ADEF0CF042C050
:1018D800D9FF43C0DAFFDECFF6FFDDCFF7FF080000
:1018E800F5CF5DF042C0D9FF43C0DAFFDE2A000E13
:1018F800DD2244C0D9FF45C0DAFFDFCF46F0040E31
:10190800DE26DFCF47F0000EDD2246C0D9FF47C0F4
:10191800DAFFDECF56F0DECF57F0DECF58F0DECF5D
:1019280059F040C02EF041C02FF056C030F057C0DB
:1019380031F058C032F059C033F05DC034F044EC97
:1019480004F02EC040F02FC041F0C4EF0DF0C4EFFA
:101958000DF05A0E016E000E026E610E036E080E37
:10196800046E000E066E020E056E4AEC1EF0015063
:101978000210D8A4C2EF0CF0C4EF0CF06BEF0DF01E
:1019880042C0D9FF43C0DAFFDECF46F0DDCF47F0D3
:10199800010E4626000E472246C0F6FF47C0F7FF55
:1019A8000800F5CF5DF0BF0E466EFF0E476E42C0D1
:1019B800D9FF43C0DAFFDECFF6FFDDCFF7FF08001F
:1019C800F550486E496A46504826475049224950C2
:1019D8000AE11A0E485CD8A0F4EF0CF0F7EF0CF00F
:1019E800010EF8EF0CF0000E546E556A10EF0DF072
:1019F80042C0D9FF43C0DAFFDECFF6FFDDCFF7FFE5
:101A08000800F550016E026A8FEC24F001C054F012
:101A180002C055F010EF0DF054505510D8B417EF20
:101A28000DF019EF0DF033EF0DF044C0D9FF45C0AC
:101A3800DAFFDFCF46F0040EDE26DFCF47F0000ED8
:101A4800DD2246C0D9FF47C0DAFFDECF56F0DECF31
:101A580057F0DECF58F0DECF59F04BEF0DF044C011
:101A6800D9FF45C0DAFFDFCF46F0040EDE26DFCF10
:101A780047F0000EDD2246C0D9FF47C0DAFFDECFAF
:101A880056F0DECF57F0DECF58F0DECF59F0020E19
:101A980042C0D9FF43C0DAFFDE26000EDD2240C077
:101AA8002EF041C02FF056C030F057C031F058C06A
:101AB80032F059C033F05DC034F044EC04F02EC06D
:101AC80040F02FC041F0C4EF0DF0C4EF0DF042C05C
:101AD800D9FF43C0DAFFDECFF6FFDDCFF7FF0800FE
:101AE800F550250AD8A47BEF0DF07DEF0DF096EFA9
:101AF8000DF042C0D9FF43C0DAFFDE2A000EDD2216
:101B0800000E026E250E016E40C003F041C004F0C5
:101B1800B0EC1FF0000E416E010E406EC4EF0DF0E8
:101B2800C4EF0DF042C0D9FF43C0DAFFDE2A000E31
:101B3800DD22000E416E000E406EC4EF0DF0C4EFC2
:101B48000DF042C0D9FF43C0DAFFDECFF6FFDDCF8C
:101B5800F7FF0800F550016E026A40C003F041C06B
:101B680004F0B0EC1FF042C0D9FF43C0DAFFDE2A10
:101B7800000EDD22000E416E010E406EC4EF0DF026
:101B880012000450800B116E04500424136E03AE2F
:101B9800D0EF0DF0D2EF0DF0D5EF0DF01380D5EFAB
:101BA8000DF01350D8B4DBEF0DF0DDEF0DF0F4EFCE
:101BB8000DF01328D8A4E3EF0DF0E5EF0DF0EFEFEB
:101BC8000DF0000E016E000E026E000E036E000E88
:101BD800046EEFEF0DF0038E000E046EFEEF0DF0B5
:101BE800000E016E000E026E000E036E000E046EF3
:101BF800FEEF0DF00850800B126E11501218D8B479
:101C080008EF0EF00AEF0EF00DEF0EF0118C0DEF4D
:101C18000EF008500824126E07AE15EF0EF017EFFD
:101C28000EF01AEF0EF012801AEF0EF01250D8B420
:101C380020EF0EF022EF0EF039EF0EF01228D8A4A4
:101C480028EF0EF02AEF0EF034EF0EF0000E056EBE
:101C5800000E066E000E076E000E086E34EF0EF0D2
:101C6800078E000E086E43EF0EF0000E056E000E94
:101C7800066E000E076E000E086E43EF0EF013504E
:101C8800125CD8B04AEF0EF04CEF0EF077EF0EF082
:101C980011AC51EF0EF053EF0EF057EF0EF0800E2F
:101CA800111A57EF0EF013C014F012C013F014C03D
:101CB80012F001C014F005C001F014C005F002C014
:101CC80014F006C002F014C006F003C014F007C0F8
:101CD80003F014C007F004C014F008C004F014C0E6
:101CE80008F077EF0EF0000E146E1350096E0A6AB2
:101CF800091E0A1E094A0A2A12500B6E0C6A09505C
:101D08000B260A500C220CBE93EF0EF00C5009E182
:101D18001A0E0B5CD8A093EF0EF095EF0EF0D2EFF1
:101D28000EF00150021003100410D8A49EEF0EF01C
:101D3800A1EF0EF0010EA2EF0EF0000E146E000ED1
:101D4800016E000E026E000E036E000E046E12C0CD
:101D580013F0DDEF0EF0D2EF0EF014A0B6EF0EF098
:101D6800B8EF0EF0BEEF0EF0D89014300109146EE3
:101D7800C2EF0EF0D8901432C2EF0EF001A0C7EFF8
:101D88000EF0C9EF0EF0CCEF0EF0148ECCEF0EF083
:101D980004340432033202320132132A1250135C23
:101DA800D8A0D9EF0EF0DBEF0EF0B1EF0EF0DDEFBB
:101DB8000EF011BCE2EF0EF0E4EF0EF02CEF0FF096
:101DC8001350D8A4EAEF0EF0ECEF0EF0F8EF0EF097
:101DD800000E016E000E026E000E036E000E046E01
:101DE80086EF10F086EF10F005500126065002220B
:101DF800075003220850042204A005EF0FF007EF54
:101E08000FF0DCEF0FF014A00CEF0FF00EEF0FF057
:101E180014EF0FF0D89014300109146E18EF0FF07A
:101E2800D890143218EF0FF001A01DEF0FF01FEF3C
:101E38000FF022EF0FF0148E22EF0FF0043404326B
:101E4800033202320132132ADCEF0FF0DCEF0FF01D
:101E58000550015C06500258075003580450800A88
:101E6800096E0850800A0958D8B03DEF0FF03FEFCF
:101E78000FF07DEF0FF001C009F002C00AF003C0B7
:101E88000BF004C00CF0091E0A1E0B1E0C1E092ABA
:101E9800000E0A220B220C22055009240D6E065052
:101EA8000A200E6E07500B200F6E08500C20106E83
:101EB800FF0E0D24016EFF0E0E20026EFF0E0F2086
:101EC800036EFF0E1020046E800E111A146C14504D
:101ED800D8A471EF0FF073EF0FF085EF0FF0010E3C
:101EE8000126000E02220322042285EF0FF085EF5F
:101EF8000FF00550015E0650025A0750035A085069
:101F0800045A0150021003100410D8A48EEF0FF0E9
:101F180090EF0FF0D1EF0FF01450D8A496EF0FF018
:101F280098EF0FF0D1EF0FF0000E016E000E026E69
:101F3800000E036E000E046E86EF10F086EF10F0B0
:101F4800D1EF0FF0D890013602360336043614AEBE
:101F5800B0EF0FF0B2EF0FF0B5EF0FF00180B5EF73
:101F68000FF014A0BAEF0FF0BCEF0FF0C0EF0FF0B6
:101F7800D8801436C4EF0FF0D8901436C4EF0FF0A1
:101F88001350D8B4CAEF0FF0CCEF0FF0D1EF0FF029
:101F98001306D1EF0FF0D1EF0FF003AED6EF0FF02D
:101FA800D8EF0FF0A6EF0FF0DCEF0FF0DCEF0FF03B
:101FB800000E126E14AEE3EF0FF0E5EF0FF001EF35
:101FC80010F014C009F07F0E0916D8B4EEEF0FF028
:101FD800F0EF0FF0F4EF0FF0010E126E01EF10F0BA
:101FE80001A0F9EF0FF0FBEF0FF001EF10F0010E79
:101FF800126E01EF10F001EF10F01250D8B407EF95
:1020080010F009EF10F03AEF10F0010E0126000E63
:1020180002220322042204A014EF10F016EF10F09D
:102028003AEF10F001C009F002C00AF003C00BF04B
:1020380004C00CF00C340C320B320A32093209C0DD
:1020480001F00AC002F00BC003F00CC004F0132822
:10205800D8B431EF10F033EF10F03AEF10F0132A44
:102068003AEF10F03AEF10F03AEF10F01328D8B426
:1020780040EF10F042EF10F04CEF10F01350D8A4DE
:1020880048EF10F04AEF10F062EF10F04CEF10F04C
:10209800000E016E000E026E000E036E000E046E3E
:1020A8001350D8A45AEF10F05CEF10F062EF10F064
:1020B800000E116E62EF10F062EF10F013A067EFE0
:1020C80010F069EF10F06CEF10F0038E6FEF10F066
:1020D800039E6FEF10F0D8901330046E11AE77EFB7
:1020E80010F079EF10F07CEF10F0048E7CEF10F018
:1020F80001C001F002C002F003C003F004C004F004
:1021080086EF10F012000450800B0D6E045004246A
:10211800136E03AE92EF10F094EF10F097EF10F0FB
:10212800138097EF10F01350D8B49DEF10F09FEF85
:1021380010F0B4EF10F01328D8A4A5EF10F0A7EF13
:1021480010F0B1EF10F0000E016E000E026E000EDE
:10215800036E000E046EB1EF10F0038EBEEF10F0A8
:10216800000E016E000E026E000E036E000E046E6D
:10217800BEEF10F00850800B0D1A08500824126E9C
:1021880007AEC9EF10F0CBEF10F0CEEF10F01280D1
:10219800CEEF10F01250D8B4D4EF10F0D6EF10F004
:1021A800EBEF10F01228D8A4DCEF10F0DEEF10F0FF
:1021B800E8EF10F0000E056E000E066E000E076EBA
:1021C800000E086EE8EF10F0078EF3EF10F0000E27
:1021D800056E000E066E000E076E000E086E125099
:1021E800D8B4F9EF10F0FBEF10F005EF11F0135031
:1021F800D8A401EF11F003EF11F011EF11F005EF82
:1022080011F0000E016E000E026E000E036E000E3D
:10221800046EBDEF12F0BDEF12F007500102F3CFCC
:1022280018F0F4CF19F018500E6E0F6A106A116A80
:102238001950146E156A166A176A06500202F3CF0F
:1022480018F0F4CF19F018500E26000E0F221022A5
:10225800112219501426000E152216221722055095
:102268000302F3CF18F0F4CF19F018500E26000E21
:102278000F221022112219501426000E15221622A0
:10228800172210C011F00FC010F00EC00FF00E6A28
:1022980005500202F3CF18F0F4CF19F018500E26AB
:1022A80019500F22000E1022000E112206500102B2
:1022B800F3CF18F0F4CF19F018500E2619500F224A
:1022C800000E1022000E112210C011F00FC010F0E5
:1022D8000EC00FF00E6A05500102F3CF18F0F4CFCC
:1022E80019F018500E2619500F22000E1022000E59
:1022F800112207500202F3CF18F0F4CF19F018504A
:10230800142619501522000E1622000E1722065008
:102318000302F3CF18F0F4CF19F01850142619500F
:102328001522000E1622000E172207500302F3CFC3
:1023380018F0F4CF19F01850096E19500A6E0B6A8C
:102348000C6A0BC00CF00AC00BF009C00AF0096A4D
:10235800095014260A5015220B5016220C50172229
:102368000EC009F00FC00AF010C00BF011C00CF03D
:10237800190EC4EF11F0D8900C320B320A32093220
:10238800E82EBFEF11F0095014260A5015220B5001
:1023980016220C50172210C011F00FC010F00EC0FA
:1023A8000FF00E6A125013C009F00A6A0926000ECF
:1023B8000A22820E0924186EFF0E0A20196EFCEFFD
:1023C80011F0D890143615361636173611AEEFEFD1
:1023D80011F0F1EF11F0F2EF11F01480D8900E36F1
:1023E8000F36103611361806D8A01906FCEF11F072
:1023F80016AE01EF12F003EF12F0E5EF11F005EF62
:1024080012F0000E126E11AE0CEF12F00EEF12F079
:1024180036EF12F0FF0E0E14096EFF0E0F140A6E3F
:10242800FF0E10140B6E7F0E11140C6E09500A105B
:102438000B100C10D8B423EF12F025EF12F029EF8F
:1024480012F0010E126E36EF12F014A02EEF12F0F9
:1024580030EF12F036EF12F0010E126E36EF12F076
:1024680036EF12F01250D8B43CEF12F03EEF12F0F3
:1024780066EF12F0010E1426000E152216221722FE
:1024880017A049EF12F04BEF12F066EF12F014C0EC
:1024980009F015C00AF016C00BF017C00CF00C3488
:1024A8000C320B320A32093209C014F00AC015F096
:1024B8000BC016F00CC017F0184A192A66EF12F074
:1024C80066EF12F019BE71EF12F0195008E11828E2
:1024D800D8A071EF12F073EF12F07DEF12F0000E3A
:1024E800146E000E156E800E166E7F0E176EB1EF0D
:1024F80012F019BE8AEF12F0195006E11804D8B08C
:1025080088EF12F08AEF12F096EF12F0000E146EB8
:10251800000E156E000E166E000E176E000E0D6E74
:10252800B1EF12F018C013F0FF0E1416FF0E1516B7
:102538007F0E1616000E171613A0A5EF12F0A7EFC0
:1025480012F0AAEF12F0168EAAEF12F0D8901330FC
:10255800176EB1EF12F0B1EF12F00D50171214C050
:1025680001F015C002F016C003F017C004F0BDEF6B
:1025780012F012000450800B116E04500424186EDF
:1025880003AEC9EF12F0CBEF12F0CEEF12F01880C5
:10259800CEEF12F01850D8B4D4EF12F0D6EF12F0F4
:1025A800EDEF12F01828D8A4DCEF12F0DEEF12F0ED
:1025B800E8EF12F0000E016E000E026E000E036EC0
:1025C800000E046EE8EF12F0038E000E046EF7EFB3
:1025D80012F0000E016E000E026E000E036E000E69
:1025E800046EF7EF12F00850800B111A08500824F7
:1025F800196E07AE02EF13F004EF13F007EF13F0B4
:10260800198007EF13F01950D8B40DEF13F00FEF3E
:1026180013F026EF13F01928D8A415EF13F017EFCD
:1026280013F021EF13F0000E056E000E066E000E7B
:10263800076E000E086E21EF13F0078E000E086E6D
:1026480030EF13F0000E056E000E066E000E076EDA
:10265800000E086E30EF13F0055006100710081032
:10266800D8A439EF13F03BEF13F055EF13F0000E39
:10267800016E000E026E000E036E000E046E800ED8
:1026880003127F0E04121150041201C001F002C09F
:1026980002F003C003F004C004F0CDEF14F0CDEF56
:1026A80014F01850D8A45BEF13F05DEF13F071EF3E
:1026B80013F0000E016E000E026E000E036E000E87
:1026C800046E01C001F002C002F003C003F004C0B0
:1026D80004F0CDEF14F0CDEF14F01950096E0A6A2A
:1026E800091E0A1E094A0A2A18500B6E0C6A09505C
:1026F8000B260A500C227F0E0B24126E000E0C20A3
:10270800136E01C00DF002C00EF003C00FF004C03C
:1027180010F0000E016E000E026E000E036E000E29
:10272800046E000E146E000E156E000E166E000E6E
:10273800176E000E196EDDEF13F01950D8B4A7EF1D
:1027480013F0A9EF13F0C2EF13F0D8900D360E3640
:102758000F361036D890013602360336043617AED7
:10276800B8EF13F0BAEF13F0BBEF13F00180D89075
:102778001436153616361736C2EF13F005500D5CB1
:1027880006500E5807500F5808501058D8A0CFEFD1
:1027980013F0D1EF13F0DCEF13F0178C05500D5E3A
:1027A80006500E5A07500F5A0850105ADCEF13F013
:1027B800192A190E1964E3EF13F0E5EF13F0A1EFEE
:1027C80013F0E7EF13F00D500E100F101010D8B4DF
:1027D800F0EF13F0F2EF13F00EEF14F014800EEF99
:1027E80014F00EEF14F0D890013602360336043692
:1027F80017AE01EF14F003EF14F004EF14F00180AA
:10280800D89014361536163617361206D8A0130681
:102818000EEF14F003AE13EF14F015EF14F0F7EF0A
:1028280013F017EF14F0000E196E17AE1EEF14F028
:1028380020EF14F048EF14F0FF0E1414096EFF0E89
:1028480015140A6EFF0E16140B6E7F0E17140C6EFD
:1028580009500A100B100C10D8B435EF14F037EFEC
:1028680014F03BEF14F0010E196E48EF14F001A0BC
:1028780040EF14F042EF14F048EF14F0010E196E17
:1028880048EF14F048EF14F01950D8B44EEF14F094
:1028980050EF14F078EF14F0010E0126000E02221A
:1028A8000322042204A05BEF14F05DEF14F078EF2C
:1028B80014F001C009F002C00AF003C00BF004C014
:1028C8000CF00C340C320B320A32093209C001F018
:1028D8000AC002F00BC003F00CC004F0124A132A1D
:1028E80078EF14F078EF14F013BE83EF14F0135060
:1028F80008E11228D8A083EF14F085EF14F092EFC6
:1029080014F0000E136E1268000E016E000E026EB7
:10291800000E036E000E046E92EF14F013BE9FEFCC
:1029280014F0135006E11204D8B09DEF14F09FEF95
:1029380014F0AFEF14F0000E136E000E126E000EBE
:10294800016E000E026E000E036E000E046E000E85
:10295800116EAFEF14F012C018F018A0B6EF14F013
:10296800B8EF14F0BBEF14F0038EBEEF14F0039E23
:10297800BEEF14F0D8901830046E1150041201C044
:1029880001F002C002F003C003F004C004F0CDEF70
:1029980014F012001EC036F01FC037F020C038F007
:1029A80021C039F022C03AF023C03BF024C03CF0EB
:1029B80025C03DF03DBEE3EF14F0E6EF14F0010E44
:1029C800E7EF14F0000E346E356A34503510D8B481
:1029D800F0EF14F0F2EF14F004EF15F03D1E3C1E7A
:1029E8003B1E3A1E391E381E371E366C000E372223
:1029F800382239223A223B223C223D2204EF15F0AC
:102A08000001E5BF0AEF15F00CEF15F00FEF15F018
:102A1800E6930FEF15F0E5BF1CEF15F0E55106E161
:102A2800E405D8B01AEF15F01CEF15F022EF15F0F9
:102A3800000E316E010E306E26EF15F0E4C030F056
:102A4800E5C031F0E2C032F0E3C033F03450351065
:102A5800D8A431EF15F033EF15F03CEF15F0E6A5EB
:102A680038EF15F03AEF15F041EF15F03CEF15F09F
:102A78003206D8A0330641EF15F0000E3F6E4F0E18
:102A88003E6E000E3E24D96E010E3F20DA6E000E17
:102A9800DF6ECDEF15F03E06D8A03F06000E3E24AF
:102AA800D96E010E3F20DA6E36C001F037C002F051
:102AB80038C003F039C004F03AC005F03BC006F056
:102AC8003CC007F03DC008F00A0E096E000E0A6E01
:102AD800000E0B6E000E0C6E000E0D6E000E0E6ECC
:102AE800000E0F6E000E106E81EC1AF001C026F079
:102AF80002C027F003C028F004C029F005C02AF05E
:102B080006C02BF007C02CF008C02DF026C013F02B
:102B180028C014F02CEC24F01350300FDF6E300670
:102B2800D8A031063206D8A0330636C001F037C027
:102B380002F038C003F039C004F03AC005F03BC0D9
:102B480006F03CC007F03DC008F00A0E096E000E02
:102B58000A6E000E0B6E000E0C6E000E0D6E000E4F
:102B68000E6E000E0F6E000E106EA9EC19F001C06B
:102B780036F002C037F003C038F004C039F005C0A1
:102B88003AF006C03BF007C03CF008C03DF0CDEF7E
:102B980015F03FBED8EF15F03F5008E13E04D8A02D
:102BA800D8EF15F0DAEF15F011EF16F036503710B0
:102BB800381039103A103B103C103D10D8A4E7EFFC
:102BC80015F0E9EF15F04FEF15F031BEF6EF15F0FF
:102BD800315006E13004D8B0F4EF15F0F6EF15F0F7
:102BE8004FEF15F033BE01EF16F0335008E1320411
:102BF800D8A001EF16F003EF16F011EF16F0000160
:102C0800E6B309EF16F00BEF16F04FEF15F011EFE2
:102C180016F011EF16F011EF16F034503510D8A455
:102C280018EF16F01AEF16F024EF16F00001E6A5DB
:102C380020EF16F022EF16F046EF16F024EF16F00C
:102C48003E06D8A03F0634503510D8A42EEF16F013
:102C580030EF16F036EF16F0000E2F6E2B0E2E6E9C
:102C68003CEF16F0000E2F6E2D0E2E6E3CEF16F078
:102C7800000E3E24D96E010E3F20DA6E2EC0DFFF13
:102C880046EF16F01CC011F01DC012F0000E3E24D5
:102C9800136E010E3F20146E32C015F033C016F0CB
:102CA800F6EC20F011C01CF012C01DF05CEF16F01D
:102CB8001200280EA4EC1CF064EF16F064EF16F076
:102CC8008DEC23F00009D8A46CEF16F06EEF16F027
:102CD80064EF16F070EF16F0060E4EEC24F00C0EB2
:102CE8004EEC24F0000E036E000E026E000E056E10
:102CF800000E046ECBEC24F0700E026E080E036E0C
:102D0800BEEC21F0000E036E000E026E000E056E82
:102D1800020E046ECBEC24F0720E026E080E036EE7
:102D2800BEEC21F0000E036E000E026E000E056E62
:102D3800040E046ECBEC24F0740E026E080E036EC3
:102D4800BEEC21F0000E036E000E026E000E056E42
:102D5800060E046ECBEC24F0800E026E080E036E95
:102D6800BEEC21F0000E036E000E026E000E056E22
:102D7800080E046ECBEC24F0820E026E080E036E71
:102D8800BEEC21F0000E036E000E026E000E056E02
:102D98000A0E046ECBEC24F0840E026E080E036E4D
:102DA800BEEC21F0000E036E000E026E000E056EE2
:102DB8000C0E046ECBEC24F07C0E026E080E036E33
:102DC800BEEC21F0000E036E000E026E000E056EC2
:102DD8000E0E046ECBEC24F07E0E026E080E036E0F
:102DE800BEEC21F0000E036E010E026E000E056EA1
:102DF800000E046ECBEC24F07A0E026E080E036E01
:102E0800BEEC21F0000E036E010E026E000E056E80
:102E1800020E046ECBEC24F0660E026E080E036EF2
:102E2800BEEC21F0000E036E010E026E000E056E60
:102E3800040E046ECBEC24F0640E026E080E036ED2
:102E4800BEEC21F0000E036E010E026E000E056E40
:102E5800060E046ECBEC24F0680E026E080E036EAC
:102E6800BEEC21F0000E036E010E026E000E056E20
:102E7800080E046ECBEC24F0760E026E080E036E7C
:102E8800BEEC21F0000E036E010E026E000E056E00
:102E98000A0E046ECBEC24F0780E026E080E036E58
:102EA800BEEC21F0000E036E010E026E000E056EE0
:102EB8000B0E046ECBEC24F06A0E026E080E036E45
:102EC800BEEC21F0000E036E010E026E000E056EC0
:102ED8000E0E046ECBEC24F0780E026E080E036E14
:102EE800BEEC21F0000E036E010E026E000E056EA0
:102EF8000F0E046ECBEC24F06C0E026E080E036EFF
:102F0800BEEC21F088EF17F01200D8C02AF0D9C023
:102F18002BF0DAC02CF0DBC02DF01AC02AF01BC051
:102F28002BF01CC02CF01DC02DF0810E1E6EFF0E64
:102F38001F6E2AC020F02BC021F02CC022F02DC01B
:102F480023F0180EADEF17F0D89023322232213239
:102F58002032E82EA8EF17F020501E24286E000E0D
:102F68001F20296E29BEC2EF17F0295009E1170E5C
:102F7800285CD8A0C2EF17F0C4EF17F0CEEF17F017
:102F88001AC01AF01BC01BF01CC01CF01DC01DF09D
:102F9800A1EF18F029BED3EF17F0D5EF17F04DEFDA
:102FA80018F028C01EF0FF0E1F6EFF0E206E7F0E59
:102FB800216E000E226E1E66E4EF17F0ECEF17F09C
:102FC80022342232213220321F321E2EDFEF17F038
:102FD8001FC024F020C025F021C026F022C027F011
:102FE80024502A141E6E25502B141F6E26502C14A4
:102FF800206E27502D14216E1E501F1020102110F6
:10300800D8A409EF18F00BEF18F015EF18F01AC054
:103018001AF01BC01BF01CC01CF01DC01DF0A1EF56
:1030280018F02AC01EF02BC01FF02CC020F02DC0B5
:1030380021F0200E25EF18F0D890213220321F32CF
:103048001E32E82E20EF18F01E501F1020102110FD
:10305800D8B431EF18F033EF18F03BEF18F02450E4
:103068002A2625502B2226502C2227502D22241C7C
:103078001E6E251C1F6E261C206E271C216E1E50DE
:103088002A161F502B1620502C1621502D1697EF5C
:1030980018F02AC01EF02BC01FF02CC020F02DC045
:1030A80021F0200E5DEF18F0D890213220321F3227
:1030B8001E32E82E58EF18F01E501F102010211055
:1030C800D8A469EF18F06BEF18F075EF18F0000E40
:1030D8002A6E000E2B6E000E2C6E000E2D6E97EFD2
:1030E80018F0D8902A341E6E2B341F6E2C34206EA4
:1030F8002D34216E1E501F1020102110D8B487EFD8
:1031080018F089EF18F097EF18F0000E2A6E000EED
:103118002B6E800E2C6EBF0E2D6E97EF18F097EF6A
:1031280018F097EF18F02AC01AF02BC01BF02CC02B
:103138001CF02DC01DF0A1EF18F01200000E166E45
:10314800000E156E000E0F6E000E0E6EB0EF18F02A
:10315800084A092AB0EF18F0010E146E08C0F6FFED
:1031680009C0F7FF0800F550200AD8B4BEEF18F0E0
:10317800C0EF18F0DFEF18F0F70E0A6EFF0E0B6EB7
:1031880008C0F6FF09C0F7FF0800F5500C6E0D6A7D
:103198000A500C260B500D220D5009E1050E0C5C4F
:1031A800D8A0D9EF18F0DBEF18F0DFEF18F0000E19
:1031B800146EDFEF18F014C010F0116AF4EF18F075
:1031C80008C0F6FF09C0F7FF0800F550016E026A53
:1031D80008EC23F001C010F002C011F0F4EF18F071
:1031E80010501110D8A4FBEF18F0FDEF18F0ACEF59
:1031F80018F00BEF19F00BEF19F0000E0F6E010E1F
:103208000E6E07EF19F0084A092A4FEF19F008C0A7
:10321800F6FF09C0F7FF0800F5500A6E0B6A0B505D
:10322800000AD8B41AEF19F04FEF19F00A502B0A18
:10323800D8B407EF19F0060AD8B401EF19F04FEF28
:1032480019F04FEF19F0D00E0A6EFF0E0B6E08C082
:10325800F6FF09C0F7FF0800F5500C6E0D6A0A501A
:103268000C260B500D220C1E0D1E0C4A0D2A15C0E3
:1032780001F016C002F0000E046E0A0E036EE7ECB1
:1032880024F00C500124156E0D500220166E084AC9
:10329800092A4FEF19F0D00E0A6EFF0E0B6E08C008
:1032A800F6FF09C0F7FF0800F5500C6E0D6A0A50CA
:1032B8000C260B500D220D500AE10A0E0C5CD8A00A
:1032C80068EF19F06BEF19F0010E6CEF19F0000EB2
:1032D800126E136A80EF19F008C0F6FF09C0F7FFF5
:1032E8000800F550016E026AADEC24F001C012F03E
:1032F80002C013F080EF19F012501310D8A487EF12
:1033080019F089EF19F027EF19F08BEF19F00E502B
:103318000F10D8A492EF19F094EF19F0A2EF19F05A
:1033280015C00AF016C00BF00A1E0B1E0A4A0B2A1B
:103338000AC008F00BC009F0A8EF19F015C008F092
:1033480016C009F0A8EF19F01200000E126E10BE98
:10335800B2EF19F0B0EF19F0C6EF19F0101E0F1EFA
:103368000E1E0D1E0C1E0B1E0A1E096C000E0A22D4
:103378000B220C220D220E220F221022010E126E99
:10338800C6EF19F008BECDEF19F0CBEF19F0E1EF59
:1033980019F0081E071E061E051E041E031E021E27
:1033A800016C000E022203220422052206220722B3
:1033B8000822010E121AE1EF19F020EE13F0070EA1
:1033C800DE6AE806FDE209500A100B100C100D1019
:1033D8000E100F101010D8B4F4EF19F0F6EF19F022
:1033E80054EF1AF0010E116E06EF1AF0D890093654
:1033F8000A360B360C360D360E360F361036112AB5
:1034080006EF1AF010AE0BEF1AF00DEF1AF0FAEF04
:1034180019F011EF1AF011EF1AF0D890133614368C
:10342800153616361736183619361A360950015C0D
:103438000A5002580B5003580C5004580D500558A8
:103448000E5006580F50075810500858D8A02FEFA4
:103458001AF031EF1AF044EF1AF00950015E0A50E1
:10346800025A0B50035A0C50045A0D50055A0E506C
:10347800065A0F50075A1050085A138044EF1AF092
:10348800D89010320F320E320D320C320B320A3213
:103498000932112E11EF1AF054EF1AF054EF1AF006
:1034A8001250D8B45AEF1AF05CEF1AF06EEF1AF017
:1034B8001A1E191E181E171E161E151E141E136C12
:1034C800000E1422152216221722182219221A2257
:1034D8006EEF1AF013C001F014C002F015C003F02B
:1034E80016C004F017C005F018C006F019C007F0A0
:1034F8001AC008F080EF1AF01200000E126E08BE13
:103508008AEF1AF088EF1AF09EEF1AF0081E071ECD
:10351800061E051E041E031E021E016C000E02225A
:10352800032204220522062207220822010E126E17
:103538009EEF1AF010BEA5EF1AF0A3EF1AF0B7EF3E
:103548001AF0101E0F1E0E1E0D1E0C1E0B1E0A1E3C
:10355800096C000E0A220B220C220D220E220F22C9
:103568001022B7EF1AF009500A100B100C100D10AA
:103578000E100F101010D8B4C4EF1AF0C6EF1AF0DE
:103588001AEF1BF0010E116ED6EF1AF0D89009361B
:103598000A360B360C360D360E360F361036112A13
:1035A800D6EF1AF010AEDBEF1AF0DDEF1AF0CAEF23
:1035B8001AF0E1EF1AF0E1EF1AF00950015C0A5035
:1035C80002580B5003580C5004580D5005580E5013
:1035D80006580F50075810500858D8A0F6EF1AF0A0
:1035E800F8EF1AF00AEF1BF00950015E0A50025A70
:1035F8000B50035A0C50045A0D50055A0E50065AD7
:103608000F50075A1050085A0AEF1BF0D890103282
:103618000F320E320D320C320B320A320932112EB1
:10362800E1EF1AF01AEF1BF01AEF1BF01250D8B4A2
:1036380020EF1BF022EF1BF034EF1BF0081E071ED3
:10364800061E051E041E031E021E016C000E022229
:1036580003220422052206220722082234EF1BF047
:1036680001C001F002C002F003C003F004C004F07E
:1036780005C005F006C006F007C007F008C008F04E
:1036880046EF1BF01200000E1A14226E000E1B14D7
:10369800236E800E1C14246E7F0E1D14256E22507E
:1036A800231024102510D8A45CEF1BF05EEF1BF04C
:1036B80068EF1BF0000E1A6E000E1B6E000E1C6EDB
:1036C800000E1D6E68EF1BF0000E1E14226E000E19
:1036D8001F14236E800E2014246E7F0E2114256E75
:1036E8002250231024102510D8A47DEF1BF07FEF63
:1036F8001BF089EF1BF0000E1E6E000E1F6E000EF1
:10370800206E000E216E89EF1BF01DAE8EEF1BF0B0
:1037180090EF1BF0AFEF1BF01AC022F01BC023F094
:103728001CC024F01DC025F0221E231E241E251EA9
:10373800222A000E232224222522000E22241A6E79
:10374800000E23201B6E000E24201C6E800E2520E8
:103758001D6EAFEF1BF021AEB4EF1BF0B6EF1BF000
:10376800D3EF1BF01EC022F01FC023F020C024F0AE
:1037780021C025F0221E231E241E251E222A000EEB
:10378800232224222522000E22241E6E000E23202E
:103798001F6E000E2420206E800E2520216E000E44
:1037A8001A1A000E1B1A000E1C1A800E1D1A000E83
:1037B8001E1A000E1F1A000E201A800E211A1E5003
:1037C8001A5C1F501B5820501C5821501D58D8B047
:1037D800F0EF1BF0F2EF1BF0F5EF1BF0D890FAEFCB
:1037E8001BF0D880FAEF1BF0FAEF1BF0120003343D
:1037F80004340A6E0A50D8A404EF1CF006EF1CF03B
:1038080012EF1CF0000E016E000E026E000E036E29
:10381800000E046EA3EF1CF0A3EF1CF001C005F02E
:1038280002C006F003C007F004C008F0200E22EF23
:103838001CF0D8900832073206320532E82E1DEF08
:103848001CF00550096E038EFF0E0116FF0E0216BE
:10385800FF0E0316000E0416960E0A5E0ABE39EF16
:103868001CF037EF1CF05DEF1CF00A50800A970F30
:10387800D8B041EF1CF043EF1CF051EF1CF0000EE4
:10388800016E000E026E000E036E000E046EA3EFB2
:103898001CF0A3EF1CF051EF1CF0D8900432033257
:1038A800023201320A3E51EF1CF087EF1CF087EF1D
:1038B8001CF01F0E0A6463EF1CF065EF1CF07BEF31
:1038C8001CF0000E016E000E026E000E036E000E5C
:1038D800046EA3EF1CF0A3EF1CF07BEF1CF0D89054
:1038E80001360236033604360A067BEF1CF00A500E
:1038F800D8A481EF1CF083EF1CF073EF1CF087EF66
:103908001CF087EF1CF00950D8B48DEF1CF08FEF36
:103918001CF099EF1CF0041E031E021E016C000E21
:1039280002220322042299EF1CF001C001F002C018
:1039380002F003C003F004C004F0A3EF1CF012006F
:10394800056EF00E8316F00E9516959C959A95982F
:103958008C9C8C9A8C981AEC25F0300E4EEC24F046
:1039680000F0300E4EEC24F000F0320E4EEC24F055
:10397800C0EF1CF0C0EF1CF08DEC23F00009D8A4B8
:10398800C8EF1CF0CAEF1CF0C0EF1CF0D0EF1CF021
:10399800D0EF1CF0D0EF1CF08DEC23F00009D8A478
:1039A800D8EF1CF0DAEF1CF0D0EF1CF0DCEF1CF0C5
:1039B80005504EEC24F0E3EF1CF0E3EF1CF08DEC27
:1039C80023F00009D8A4EBEF1CF0EDEF1CF0E3EFB7
:1039D8001CF0EFEF1CF0080E4EEC24F0F6EF1CF094
:1039E800F6EF1CF08DEC23F00009D8A4FEEF1CF0D4
:1039F80000EF1DF0F6EF1CF002EF1DF00F0E4EEC7D
:103A080024F009EF1DF009EF1DF08DEC23F00009FB
:103A1800D8A411EF1DF013EF1DF009EF1DF015EFFD
:103A28001DF0010E4EEC24F01CEF1DF01CEF1DF0F4
:103A38008DEC23F00009D8A424EF1DF026EF1DF02B
:103A48001CEF1DF028EF1DF0040E4EEC24F02FEFB4
:103A58001DF02FEF1DF08DEC23F00009D8A437EFEF
:103A68001DF039EF1DF02FEF1DF03BEF1DF0800E1C
:103A780061EC23F040EF1DF01200DCC00BF0DDC05C
:103A88000CF0DEC00DF0DFC00EF001C00BF002C07C
:103A98000CF003C00DF004C00EF00BC005F00CC014
:103AA80006F00DC007F00EC008F0180E61EF1DF00B
:103AB800D8900832073206320532E82E5CEF1DF046
:103AC8000550096E0A6A09500A10D8A46EEF1DF055
:103AD80070EF1DF094EF1DF0D8900B34056E0C3488
:103AE800066E0D34076E0E34086E0550061007106A
:103AF8000810D8A482EF1DF084EF1DF08AEF1DF0A6
:103B0800000E026E020E016EC7EF1DF0000E026E6F
:103B1800030E016EC7EF1DF0C7EF1DF0C7EF1DF0D4
:103B280009280A10D8A49BEF1DF09DEF1DF0C1EFE6
:103B38001DF00BC005F00CC006F00DC007F00EC05C
:103B480008F0090ED8900536063607360836E82EEE
:103B5800A6EF1DF00550061007100810D8B4B7EFEF
:103B68001DF0BAEF1DF0010EBBEF1DF0000E016E47
:103B7800026AC7EF1DF0C7EF1DF0000E026E040EBB
:103B8800016EC7EF1DF01200030E826E8250D8A49A
:103B9800D0EF1DF0D2EF1DF0D6EF1DF0FEEF1DF0B7
:103BA800FEEF1DF08204D8A4DCEF1DF0DEEF1DF05F
:103BB800E2EF1DF010EF1EF010EF1EF0020E82185B
:103BC800D8A4E9EF1DF0EBEF1DF0EFEF1DF022EFA9
:103BD8001EF022EF1EF0030E8218D8A4F6EF1DF097
:103BE800F8EF1DF0CAEF1DF035EF1EF035EF1EF0AF
:103BF800CAEF1DF035EC23F002EF1EF08250D8A476
:103C080008EF1EF00AEF1EF0CAEF1DF002EF1EF0DB
:103C180002EF1EF0CAEF1DF05DEC16F014EF1EF077
:103C28008204D8A41AEF1EF01CEF1EF0CAEF1DF094
:103C380014EF1EF014EF1EF0CAEF1DF03EEC1FF05B
:103C480026EF1EF0020E8218D8A42DEF1EF02FEFDB
:103C58001EF0CAEF1DF026EF1EF026EF1EF0CAEF89
:103C68001DF08BEC20F039EF1EF0030E8218D8A45B
:103C780040EF1EF042EF1EF0CAEF1DF039EF1EF0C4
:103C880039EF1EF0CAEF1DF000EF00F001C00AF096
:103C980002C00BF003C00CF004C00DF00506D8A05C
:103CA8000606052806E10628D8A45DEF1EF05FEF9A
:103CB8001EF072EF1EF0000E026E000E016EC7EFCE
:103CC8001EF0C7EF1EF072EF1EF00A4A0B2A0C4ACC
:103CD8000D2A0506D8A0060672EF1EF00AC0D9FF05
:103CE8000BC0DAFFDF50D8B47CEF1EF07EEF1EF079
:103CF800ADEF1EF00CC0F6FF0DC0F7FF0800F55041
:103D08000009D8B48AEF1EF08CEF1EF0ADEF1EF05C
:103D180005500610D8B493EF1EF095EF1EF0ADEFE6
:103D28001EF00AC0D9FF0BC0DAFFDF50076E0CC0C7
:103D3800F6FF0DC0F7FF0800F5500718D8B4A7EF35
:103D48001EF0A9EF1EF069EF1EF0ADEF1EF0ADEF0B
:103D58001EF00CC0F6FF0DC0F7FF0800F550076E07
:103D6800086A071E081E074A082A0AC0D9FF0BC09E
:103D7800DAFFDF50096E09500724016E000E082093
:103D8800026EC7EF1EF01200000E066E04BED1EFE1
:103D98001EF0CFEF1EF0D9EF1EF0036C041ED8B052
:103DA800042A010E066ED9EF1EF002BEE0EF1EF0E7
:103DB800DEEF1EF0E8EF1EF0016C021ED8B0022AFA
:103DC800010E061AE8EF1EF0000E086E000E076ED0
:103DD80003500410D8B4F3EF1EF0F5EF1EF029EFEE
:103DE8001FF0010E056EFFEF1EF0D8900336043663
:103DF800052AFFEF1EF004AE04EF1FF006EF1FF0D8
:103E0800F9EF1EF00AEF1FF00AEF1FF0D8900736FF
:103E180008360350015C04500258D8A016EF1FF072
:103E280018EF1FF01FEF1FF00350015E0450025AF5
:103E380007801FEF1FF0D89004320332052E0AEFD7
:103E48001FF029EF1FF029EF1FF00650D8B42FEF0D
:103E58001FF031EF1FF037EF1FF0076C081ED8B0C6
:103E6800082A37EF1FF007C001F008C002F03DEF45
:103E78001FF01200280EA4EC1CF045EF1FF045EFD0
:103E88001FF08DEC23F00009D8A44DEF1FF04FEF81
:103E98001FF045EF1FF051EF1FF0060E4EEC24F017
:103EA8000C0E4EEC24F0000E036E000E026E000E97
:103EB800056E020E046ECBEC24F03C0E026E080E6A
:103EC800036EBEEC21F0000E036E010E026E000EB2
:103ED800056E010E046ECBEC24F0010E026E080E86
:103EE800036EBEEC21F0060E076E130E066EAE0EC4
:103EF800E82EFED7062EFCD7072EFAD7000E036E43
:103F0800000E026E000E056E040E046ECBEC24F05B
:103F1800480E026E080E036EBEEC21F0000E036E12
:103F2800010E026E000E056E010E046ECBEC24F03D
:103F3800200E026E080E036EBEEC21F0060E076E10
:103F4800130E066EAE0EE82EFED7062EFCD7072EF1
:103F5800FAD757EF1FF0120003500410D8B4B7EF88
:103F68001FF0B9EF1FF0C4EF1FF003500410D8A4DE
:103F7800C0EF1FF0C2EF1FF0C9EF1FF0C4EF1FF032
:103F8800015024EC25F01EEF20F020EE04F0035041
:103F9800D9260450DA22DE50DE10D8B4D6EF1FF04E
:103FA800D8EF1FF0F5EF1FF020EE04F00350D926EC
:103FB8000450DA2210EE02F00350E1260450E22207
:103FC800DE50E65CE650800A096EDE50800A095829
:103FD800D8B0F1EF1FF0F3EF1FF01EEF20F0F5EF70
:103FE8001FF020EE02F00350D9260450DA22DECF6B
:103FF80005F0DDCF06F003C0D9FF04C0DAFFDECF3D
:1040080007F0DDCF08F005500724D96E06500820C8
:10401800DA6E01C0DFFF20EE02F00350D92604500B
:10402800DA22DE2A000EDD221EEF20F01EEF20F03D
:104038001EEF20F01200000E066E02BE28EF20F0E0
:1040480026EF20F030EF20F0016C021ED8B0022AD3
:10405800010E066E30EF20F004BE37EF20F035EF8A
:1040680020F03DEF20F0036C041ED8B0042A3DEF89
:1040780020F003500410D8B444EF20F046EF20F0AD
:1040880076EF20F0010E056E50EF20F0D890033641
:104098000436052A50EF20F004AE55EF20F057EF14
:1040A80020F04AEF20F05BEF20F05BEF20F00350A8
:1040B800015C04500258D8A064EF20F066EF20F0AD
:1040C8006CEF20F00350015E0450025A6CEF20F0B0
:1040D800D89004320332052E5BEF20F076EF20F003
:1040E80076EF20F00650D8B47CEF20F07EEF20F079
:1040F80084EF20F0016C021ED8B0022A84EF20F071
:1041080001C001F002C002F08AEF20F01200000E98
:104118000001D76FF60ED66F140ED26FAE0ED36FA6
:104128000D0ED46F420ED56F280EA4EC1CF09FEF35
:1041380020F09FEF20F08DEC23F00009D8A4A7EF22
:1041480020F0A9EF20F09FEF20F0ABEF20F0060E53
:104158004EEC24F00C0E4EEC24F0B00E00019E6FD5
:10416800000E9F6F2F0EA06F080EA16FD6C0A2F091
:10417800D7C0A3F0D9EC22F0000E036E000E026E39
:10418800000E056E000E046ECBEC24F0B00E026E2D
:10419800000E036EBEEC21F0B00E00019E6F000E03
:1041A8009F6F110EA06F080EA16FD2C0A2F0D3C0EE
:1041B800A3F0D4C0A4F0D5C0A5F0D9EC22F0000E2D
:1041C800036E010E026E000E056E000E046ECBEC3F
:1041D80024F0B00E026E000E036EBEEC21F0F5EF77
:1041E80020F012000001E6A1FCEF20F0FEEF20F025
:1041F8000AEF21F013C00AF014C00BF011C00CF044
:1042080012C00DF0E1EC23F00AEF21F016BE0FEF1B
:1042180021F011EF21F017EF21F015C01AF016C0A8
:104228001BF01BEF21F0000E1B6E000E1A6E000E25
:10423800196E000E186E2FEF21F0000E026E200E80
:10424800016E11C003F012C004F0B0EC1FF0184A60
:10425800192A2FEF21F01A50185C1950800A176E8E
:104268001B50800A1758D8A03CEF21F03EEF21F0F0
:1042780021EF21F00001E6B144EF21F046EF21F0F3
:1042880052EF21F013C00AF014C00BF011C00CF06B
:1042980012C00DF0E1EC23F052EF21F013C001F051
:1042A80014C002F0B8EC23F01A500124116E1B5010
:1042B8000220126E60EF21F01200000E0114096E48
:1042C800000E02140A6E800E03140B6E7F0E041487
:1042D8000C6E09500A100B100C10D8A476EF21F0C0
:1042E80078EF21F082EF21F0000E016E000E026ED1
:1042F800000E036E000E046E82EF21F0000E05140E
:10430800096E000E06140A6E800E07140B6E7F0EDF
:1043180008140C6E09500A100B100C10D8A497EF53
:1043280021F099EF21F0A3EF21F0000E056E000EA9
:10433800066E000E076E000E086EA3EF21F0055002
:1043480001180FE1065002180CE10750031809E1A3
:1043580008500418D8B4B3EF21F0B5EF21F0B8EF46
:1043680021F0D890BDEF21F0D880BDEF21F0BDEF4E
:1043780021F01200E6EF21F0C4EF21F0C4EF21F0A4
:104388008DEC23F00009D8A4CCEF21F0CEEF21F07A
:10439800C4EF21F0D0EF21F002C0F6FF03C0F7FF11
:1043A800F86A070EF76403D00800F55005D0F6CF79
:1043B800E9FFF7CFEAFFEF50A8EC22F0024A032A00
:1043C800E6EF21F002C0F6FF03C0F7FFF86A070E18
:1043D800F76403D00800F55005D0F6CFE9FFF7CF12
:1043E800EAFFEF500009D8A4FCEF21F0FEEF21F01E
:1043F800C4EF21F000EF22F01200BF0E096EFF0E8D
:104408000A6E07C00BF008C00CF009500B260A50C2
:104418000C220C500AE11A0E0B5CD8A016EF22F001
:1044280019EF22F0010E1AEF22F0000E0D6E0E6A3F
:104438002AEF22F007C001F008C002F08FEC24F048
:1044480001C00DF002C00EF02AEF22F00D500E1040
:10445800D8B431EF22F033EF22F03CEF22F0200EF7
:104468000710076E0850086E40EF22F040EF22F068
:1044780007C007F008C008F0120003C007F004C026
:1044880008F001C009F002C00AF04DEF22F04DEF2C
:1044980022F00750056E0850066E074A082A05C024
:1044A800F6FF06C0F7FFF86A09C0D9FF0AC0DAFFAD
:1044B800094A0A2A070EF76403D00800F55005D008
:1044C800F6CFE9FFF7CFEAFFEF50DF6EDF50D8A451
:1044D80070EF22F072EF22F04DEF22F074EF22F02D
:1044E80012009AC05EF09BC05FF0000E0001E16F01
:1044F800000EE06F95EF22F098C040F099C041F0AF
:104508005E0E426E000E436E9CC044F09DC045F0A6
:10451800D5EC0AF040500001E0274150E12395EF27
:1045280022F05EC0F6FF5FC0F7FF0800F5500009F3
:10453800D8A4A1EF22F0A3EF22F080EF22F0E0C090
:1045480098F0E1C099F01200016EADEF22F0ADEFE6
:1045580022F08DEC23F00009D8A4B5EF22F0B7EFD4
:1045680022F0ADEF22F0B9EF22F0F00E9516F00E22
:10457800831601380F0B0F0B83128C8A8C9C0DEC61
:1045880025F08C880DEC25F08C98F00E83160150E0
:104598000F0B83120DEC25F08C880DEC25F08C9810
:1045A8000F0E9512D8EF22F01200A20E0001A86F8C
:1045B800000EA96F9EC0AAF09FC0ABF0000EAD6FB1
:1045C800000EAC6F000EAF6F000EAE6FAA0E986FA4
:1045D800000E996FA0C09AF0A1C09BF0A80E9C6F26
:1045E800000E9D6F75EC22F098C0A6F099C0A7F058
:1045F8000001AC519E25D96EAD519F21DA6E000E97
:10460800DF6E07EF23F01200010E076E200E01186F
:104618000210D8B412EF23F014EF23F02FEF23F099
:10462800F70E036EFF0E046E01C005F002C006F01F
:104638000350052604500622065009E1050E055CC4
:10464800D8A029EF23F02BEF23F02FEF23F0000E53
:10465800076E2FEF23F007C001F0026A34EF23F052
:104668001200280EA4EC1CF03CEF23F03CEF23F0E2
:104678008DEC23F00009D8A444EF23F046EF23F093
:104688003CEF23F048EF23F0060E4EEC24F00C0E1E
:104698004EEC24F0000E036E000E026E000E056E46
:1046A800000E046ECBEC24F06E0E026E080E036E44
:1046B800BEEC21F060EF23F01200046EF00E9516A8
:1046C800F00E83160450016E026A018E040E036E0A
:1046D800023402320132032E6CEF23F001500F0B2B
:1046E80083128C9C8C9A0DEC25F08C880DEC25F0AF
:1046F8008C98F00E831604500F0B83120DEC25F0E6
:104708008C880DEC25F08C980F0E95128CEF23F009
:1047180012008C8C8C9A0DEC25F08C880DEC25F011
:1047280083A699EF23F09BEF23F0AAEF23F08C9850
:104738000DEC25F08C880DEC25F08C988C9C010EE6
:10474800B7EF23F0B7EF23F0B7EF23F08C980DEC19
:1047580025F08C880DEC25F08C988C9C000EB7EF1A
:1047680023F0B7EF23F0120001C005F002C006F0F5
:10477800C2EF23F0014A022AC2EF23F001C0D9FF99
:1047880002C0DAFFDF50D8A4CCEF23F0CEEF23F03D
:10479800BEEF23F0D0EF23F005C003F006C004F00D
:1047A800031E041E034A042A01500324016E02500A
:1047B8000420026EE0EF23F01200000E106E000ECF
:1047C8000F6EF4EF23F00EC001F0026A0CC003F084
:1047D8000DC004F0B0EC1FF00F4A102AF4EF23F0DC
:1047E8000F500A24D96E10500B20DA6EDF500E6E6F
:1047F8000E50D8A402EF24F004EF24F0E7EF23F0E2
:1048080006EF24F01200000E1E1A000E1F1A000EEA
:10481800201A800E211A1AC001F01BC002F01CC019
:1048280003F01DC004F01EC005F01FC006F020C034
:1048380007F021C008F0C5EC0DF001C01AF002C065
:104848001BF003C01CF004C01DF02BEF24F0120075
:1048580014BE39EF24F0145006E11304D8B037EF32
:1048680024F039EF24F047EF24F013C015F014C0FA
:1048780016F0151E161E154A162A15C013F016C076
:1048880014F04DEF24F013C013F014C014F04DEFE2
:1048980024F01200016EF00E9516F00E8316013802
:1048A8000F0B0F0B83128C9C8C9A0DEC25F08C88C7
:1048B8000DEC25F08C98F00E831601500F0B831227
:1048C8000DEC25F08C880DEC25F08C980F0E9512C8
:1048D8006EEF24F012000150021003100410D8B437
:1048E80078EF24F07AEF24F084EF24F0000E011A18
:1048F800000E021A000E031A800E041A84EF24F028
:1049080001C001F002C002F003C003F004C004F0CB
:104918008EEF24F01200BF0E036EFF0E046E01C06E
:1049280005F002C006F00350052604500622065082
:104938000AE11A0E055CD8A0A4EF24F0A7EF24F032
:10494800010EA8EF24F0000E016E026AACEF24F00D
:104958001200D00E036EFF0E046E01C005F002C0F7
:1049680006F0035005260450062206500AE10A0EF6
:10497800055CD8A0C2EF24F0C5EF24F0010EC6EF05
:1049880024F0000E016E026ACAEF24F0120003BE82
:10499800D6EF24F0035008E10204D8A0D6EF24F0A3
:1049A800D8EF24F0DEEF24F00450C00F4EEC24F0D2
:1049B800E6EF24F00450800F4EEC24F0E6EF24F0EC
:1049C800E6EF24F0120001500302F3CF05F0F4CF14
:1049D80006F001500402F350062602500302F35079
:1049E800062605C001F006C002F0FBEF24F0120015
:1049F80001EE00F0500EEE6AE806FDE100EED8F098
:104A0800100EEE6AE806FDE1000EF86E0001C8EF30
:104A18001DF000F000F000F000F000F000F000F0F1
:104A280000F000F000F000F000F01200140E016E2B
:104A38007A0EE82EFED7012EFCD723EF25F01200C0
:024A480012005A
:020000040020DA
:08000000FFFFFFFFFFFFFFFF00
:020000040030CA
:0E0000000000191EFF8381FF0FC00FE00F40AC
:00000001FF
