:020000040000FA
:0400000007EF00F016
:10000800028209ED00F06DEF00F00600F2A20FEF9A
:1000180000F011EF00F02BEF00F0F2A816EF00F05F
:1000280018EF00F02BEF00F083B01DEF00F020EF89
:1000380000F0010E21EF00F0000EFF0A016E835060
:100048000118FE0B0118836EF2922BEF00F0F0A05E
:1000580030EF00F032EF00F04DEF00F0F0A637EF90
:1000680000F039EF00F04DEF00F083B23EEF00F002
:1000780041EF00F0010E42EF00F0000EFF0A016EA2
:10008800014683500118FD0B0118836EF0904DEF67
:1000980000F002921100000E956E010E936EF28E22
:1000A800F28CF288F292F086F090F18CD09E5DEF9F
:1000B80000F083A002D0838001D0839083A202D075
:1000C800838201D083925DEF00F05DEF00F007EFCF
:0C00D80000F00290029200014FEF00F0D7
:020000040020DA
:08000000FFFFFFFFFFFFFFFF00
:020000040030CA
:0E000000200C191EFF8181FF0FC00FE00F4082
:00000001FF
